:100000003BC0BCC164C0BAC1B9C1B8C1B7C1B6C1F7
:10001000B5C1B4C1B3C1B2C1B1C1B0C1AFC1AEC14C
:10002000ADC1ACC1ABC1AAC1A9C1DFC2F6C2FCC29D
:1000300009C30FC315C30FC315C31DC3FCC2BAC286
:10004000C6C2CFC200CDD914F13C28E5A16C78B569
:10005000509D89440902120001010080FA09040040
:100060000000FF00000012010101FF0000088117DD
:100070009F0C07010000000111241FBECFEDCDBF72
:100080007ED382C3DC019FEF8FEF44E4F0E018C021
:100090002D918227E82FEF70E40F3591E82FE2953C
:1000A000892F932F3170E327EF709295392F9F702E
:1000B000307E8327E40F3591932731709327832770
:1000C0006A9532F7809590958D939D9308950F933F
:1000D0001F932F93DF93CF930FB70F938399FECF87
:1000E00083990BC0839909C0839907C0839905C080
:1000F000839903C000E80ABFACC0C0918700DD2728
:10010000C857DF4F0BE018E228E0839BE9CF3F930D
:100110004F936F9360B330E803C060B3432B4993B0
:10012000442768722627215020B32872A9F13795F9
:100130003C3FA0F56227615060B3687237953C3F41
:1001400098F526272150379520B328723C3F90F52B
:100150006227615037953C3F60B36872A0F526274F
:10016000215037953C3FC8F520B328726227615073
:1001700037953C3FB0F50A9560B37AF06872262750
:10018000215037953C3F88F520B328726227615093
:1001900037953C3F10F22DC031C052C0612720B3CB
:1001A00028723F774160C6CF3F77426060B3687284
:1001B0002127C7CF3F774460612720B32872622789
:1001C00061503795C8CF3F7748602127316060B3D1
:1001D0006872262721503795C6CF3F774061612747
:1001E000C1CF3F7740622127C4CF3F77406461276A
:1001F000C9CF3F774068212700C08FCF30E83ABF92
:100200000B500195C01BD040288121FD2DC01981C4
:100210001F7740919E00141799F4293691F40091AC
:1002200077000023F1F0409186004423D1F44093FD
:1002300077004091830040939E00C8E7D0E02BC038
:100240002227209360006F914F913F910AB707FDDD
:1002500045CF0F910FBFCF91DF912F911F910F913C
:100260001895C4E8D0E016C0217059F320916000C1
:10027000222339F340918600442399F700938600A6
:1002800020938500009187004BE0401B409387003E
:10029000C6E7D0E001E022B3277D206211B31862E7
:1002A00022BB11BB18E230E830FF212722BB379573
:1002B00047954C3FC0F530FF2127379522BB479526
:1002C0004C3FA8F530FF21273795000022BB47950A
:1002D0004C3F78F530FF21273795000022BB47952A
:1002E0004C3F48F530FF2127699122BB3795479550
:1002F0004C3F18F530FF2127379522BB47954C3FDF
:1003000000F530FF21273795479522BB4C3FD8F4A5
:1003100030FF21273795362F479522BB4C3FA8F455
:100320000A9512F614C02127442722BBC2CF2127E9
:10033000C5CF2127CBCF2127D1CF2127442722BBCF
:10034000D7CF2127DACF2127DFCF2127E5CF277D80
:1003500022BB6F914F913F9100E80ABFDF91CF918F
:1003600011B3022F206222BB177DDFBFDF912F91D7
:10037000000011BB02BB1F910F91189541CE85B7AC
:100380008C6085BF8BB780688BBFC09AB89A949AEF
:100390008C9A82ED809376008AE58093840078942D
:1003A00008951F93CF93DF9380918600882309F4EB
:1003B00063C0C0986091860080918700CCE0D0E057
:1003C000C81BD109C857DF4F81E08093640080913A
:1003D00085008D3209F042C01E818F8181111FEF8F
:1003E0008881807631F58981811104C01882198253
:1003F00082E02CC0853029F48A8180938300C09AE2
:1004000024C0863061F482E0809364008B81813067
:10041000C1F08230D1F482E1C4E5D0E017C0883069
:1004200019F481E0888312C08A3079F4188281E05F
:100430000DC0CE01A7D08F3F49F483E080936400C4
:1004400007C082E1C6E6D0E001C080E0811708F075
:10045000812FD0936200C093610005C0635011F0FA
:10046000CE012FD180E08093630083EC80937800ED
:10047000109277001092860080917700811150C011
:1004800080916400882309F44BC09091780028E89B
:1004900092279093780010916300193018F411237B
:1004A00099F101C018E0833031F4612F89E790E0C1
:1004B000E4D0182F24C0E0916100F09162008130F7
:1004C00081F4DF0149E750E0EA019D012F5F3F4FD2
:1004D000F9018C9189938C2F841B811760F4D901C9
:1004E000F4CF29E730E0D90184918D9331968A2F9A
:1004F000821B8117C8F3F0936200E0936100809142
:100500006300811B80936300612F89E790E0BADD6F
:1005100083E0810F80937700183010F4109264000C
:100520008AE0859906C08150E1F71092830010920D
:100530009E00DF91CF911F9108958091710090915D
:1005400072009C012F5F3F4F309372002093710027
:1005500020916D0027FF02C0880F991F80FD286041
:10056000209369009C01232F3327269520936A004E
:100570009695879580936B0044E065E670E089E688
:1005800090E016C1FC0141818481958190937200B5
:100590008093710010927000B99AC19850E0455054
:1005A00051094D30510508F066C04B5E5F4F4F93C7
:1005B0005F93089581E080937000948187B38B608E
:1005C00087BB992311F0C09A56C0C09854C081E0EF
:1005D0008093700087B3847F87BB88B3807F88BB9C
:1005E0004AC081E08093700039C082818093750099
:1005F000948112B819B881B3866481BB80EC83B949
:1006000088E18AB912B819B881B3866481BB99238D
:1006100011F0969A30C096982EC081B3897B81BB29
:1006200082B3887B82BB27C044E0BF01CF01029622
:10063000BFD084E0089541E0BF01CF010296B8D059
:1006400081E0089582818093740083818093730098
:1006500012C080E201C080EA80936D008FEF0895A0
:1006600080E401C080EC80936D008281938190933F
:100670006F0080936E0080E00895FF920F931F93A8
:10068000CF93DF93EC01F62E80917000813011F052
:100690008E0105C0462FBE01CE0177D00BC0802F42
:1006A0008C1B8F1538F449DF80916800F801819325
:1006B0008F01F5CF8F2DDF91CF911F910F91FF907B
:1006C0000895CF92DF92EF92FF920F931F93CF93F3
:1006D000DF93EC01D62E80917000813021F08E01E5
:1006E000E0E6CE2E31C0462FBE01CE01DF91CF9184
:1006F0001F910F91FF90EF90DF90CF9046C08091B7
:10070000750090E075E0880F991F7A95E1F7E80E83
:10071000F91E80916E0090916F00E816F906A0F422
:1007200044E065E670E089E690E042D080916800A0
:1007300090916C008913E3CF909174008917F9F2BE
:10074000909173008917D9F2802F8C1B8D1570F44E
:10075000F80181918F0180936C00EFDE8091690038
:100760008C2580936900E12CF12CD3CFDF91CF91C0
:100770001F910F91FF90EF90DF90CF900895FFDDD4
:1007800010DEB99AC198FCCF0895FB0131E153E125
:10079000442369F04150DC012D91CD012FB928E0AF
:1007A0003DB95DB92150E1F72FB12193F1CF089503
:1007B000FB01442361F041505D9BFECFDC012D9194
:1007C000CD012CB95F9BFECF2CB12193F2CF0895C0
:00000001FF
